{
  "address": "0xD073e9dADC01bBc4710573bC5fc1E0b04f64EA9A",
  "abi": [
    {
      "inputs": [
        {
          "internalType": "contract IERC20",
          "name": "mdtToken_",
          "type": "address"
        },
        {
          "internalType": "contract IERC20",
          "name": "xcnToken_",
          "type": "address"
        }
      ],
      "stateMutability": "nonpayable",
      "type": "constructor"
    },
    {
      "anonymous": false,
      "inputs": [
        {
          "indexed": true,
          "internalType": "address",
          "name": "addr",
          "type": "address"
        },
        {
          "indexed": true,
          "internalType": "uint256",
          "name": "mdtAmount",
          "type": "uint256"
        },
        {
          "indexed": true,
          "internalType": "uint256",
          "name": "xcnAmount",
          "type": "uint256"
        }
      ],
      "name": "NewSwap",
      "type": "event"
    },
    {
      "anonymous": false,
      "inputs": [
        {
          "indexed": true,
          "internalType": "address",
          "name": "previousOwner",
          "type": "address"
        },
        {
          "indexed": true,
          "internalType": "address",
          "name": "newOwner",
          "type": "address"
        }
      ],
      "name": "OwnershipTransferred",
      "type": "event"
    },
    {
      "inputs": [],
      "name": "mdtToken",
      "outputs": [
        {
          "internalType": "contract IERC20",
          "name": "",
          "type": "address"
        }
      ],
      "stateMutability": "view",
      "type": "function"
    },
    {
      "inputs": [],
      "name": "owner",
      "outputs": [
        {
          "internalType": "address",
          "name": "",
          "type": "address"
        }
      ],
      "stateMutability": "view",
      "type": "function"
    },
    {
      "inputs": [],
      "name": "renounceOwnership",
      "outputs": [],
      "stateMutability": "nonpayable",
      "type": "function"
    },
    {
      "inputs": [
        {
          "internalType": "uint256",
          "name": "_amount",
          "type": "uint256"
        }
      ],
      "name": "swap",
      "outputs": [],
      "stateMutability": "nonpayable",
      "type": "function"
    },
    {
      "inputs": [
        {
          "internalType": "address",
          "name": "newOwner",
          "type": "address"
        }
      ],
      "name": "transferOwnership",
      "outputs": [],
      "stateMutability": "nonpayable",
      "type": "function"
    },
    {
      "inputs": [],
      "name": "xcnToken",
      "outputs": [
        {
          "internalType": "contract IERC20",
          "name": "",
          "type": "address"
        }
      ],
      "stateMutability": "view",
      "type": "function"
    }
  ],
  "transactionHash": "0x178633107cc6684cf261208767018d496ffc30cfcc72b922aa8f0d1a6d7306b9",
  "args": [
    "0xD70415DA29074539643b91d08d00608411Ef9e38",
    "0x33D9969F0C5d5a98523d2ce15056C61F85f37eD3"
  ],
  "solcInputHash": "6dd873fff5849a48da3d156d1f6ee697",
  "bytecode": "0x608060405234801561001057600080fd5b506040516109fd3803806109fd83398101604081905261002f916100ce565b6100383361006d565b60018055600280546001600160a01b039384166001600160a01b0319918216179091556003805492909316911617905561013e565b600080546001600160a01b038381166001600160a01b0319831681178455604051919092169283917f8be0079c531659141344cd1fd0a4f28419497f9722a3daafe3b4186f6b6457e09190a35050565b80516100c881610127565b92915050565b600080604083850312156100e4576100e4600080fd5b60006100f085856100bd565b9250506020610101858286016100bd565b9150509250929050565b60006001600160a01b0382166100c8565b60006100c88261010b565b6101308161011c565b811461013b57600080fd5b50565b6108b08061014d6000396000f3fe608060405234801561001057600080fd5b50600436106100625760003560e01c8063715018a6146100675780638da5cb5b1461007157806394b918de14610093578063c00f2921146100a6578063f2fde38b146100c6578063f70b5c06146100d9575b600080fd5b61006f6100ec565b005b6000546001600160a01b031660405161008a919061072a565b60405180910390f35b61006f6100a13660046104f9565b610100565b6003546100b9906001600160a01b031681565b60405161008a919061077b565b61006f6100d43660046104b7565b6101b5565b6002546100b9906001600160a01b031681565b6100f46101ef565b6100fe6000610219565b565b6002600154141561012c5760405162461bcd60e51b8152600401610123906107fa565b60405180910390fd5b60026001558061014e5760405162461bcd60e51b8152600401610123906107aa565b600254610168906001600160a01b03163361dead84610269565b60035461017f906001600160a01b031633836102c7565b6040518190819033907f85f6f1a7832a7b6f1dc753eaaa4cbcf16d1cd3673265eb0f1cfdedf646cf7cda90600090a45060018055565b6101bd6101ef565b6001600160a01b0381166101e35760405162461bcd60e51b81526004016101239061079a565b6101ec81610219565b50565b6000546001600160a01b031633146100fe5760405162461bcd60e51b8152600401610123906107ca565b600080546001600160a01b038381166001600160a01b0319831681178455604051919092169283917f8be0079c531659141344cd1fd0a4f28419497f9722a3daafe3b4186f6b6457e09190a35050565b6102c1846323b872dd60e01b85858560405160240161028a93929190610738565b60408051601f198184030181529190526020810180516001600160e01b03166001600160e01b0319909316929092179091526102eb565b50505050565b6102e68363a9059cbb60e01b848460405160240161028a929190610760565b505050565b6000610340826040518060400160405280602081526020017f5361666545524332303a206c6f772d6c6576656c2063616c6c206661696c6564815250856001600160a01b031661037a9092919063ffffffff16565b8051909150156102e6578080602001905181019061035e91906104d8565b6102e65760405162461bcd60e51b8152600401610123906107ea565b60606103898484600085610393565b90505b9392505050565b6060824710156103b55760405162461bcd60e51b8152600401610123906107ba565b6001600160a01b0385163b6103dc5760405162461bcd60e51b8152600401610123906107da565b600080866001600160a01b031685876040516103f8919061071e565b60006040518083038185875af1925050503d8060008114610435576040519150601f19603f3d011682016040523d82523d6000602084013e61043a565b606091505b509150915061044a828286610457565b925050505b949350505050565b6060831561046657508161038c565b8251156104765782518084602001fd5b8160405162461bcd60e51b81526004016101239190610789565b803561049b81610858565b92915050565b805161049b8161086c565b803561049b81610874565b6000602082840312156104cc576104cc600080fd5b600061044f8484610490565b6000602082840312156104ed576104ed600080fd5b600061044f84846104a1565b60006020828403121561050e5761050e600080fd5b600061044f84846104ac565b6105238161080a565b82525050565b6000610533825190565b61054181856020860161082c565b9290920192915050565b6105238161081b565b600061055e825190565b80845260208401935061057581856020860161082c565b601f01601f19169290920192915050565b602681526000602082017f4f776e61626c653a206e6577206f776e657220697320746865207a65726f206181526564647265737360d01b602082015291505b5060400190565b600e81526000602082016d125b9d985b1a5908185b5bdd5b9d60921b815291505b5060200190565b602681526000602082017f416464726573733a20696e73756666696369656e742062616c616e636520666f8152651c8818d85b1b60d21b602082015291506105c5565b60208082527f4f776e61626c653a2063616c6c6572206973206e6f7420746865206f776e6572910190815260006105ed565b601d81526000602082017f416464726573733a2063616c6c20746f206e6f6e2d636f6e7472616374000000815291506105ed565b602a81526000602082017f5361666545524332303a204552433230206f7065726174696f6e20646964206e8152691bdd081cdd58d8d9595960b21b602082015291506105c5565b601f81526000602082017f5265656e7472616e637947756172643a207265656e7472616e742063616c6c00815291506105ed565b80610523565b600061038c8284610529565b6020810161049b828461051a565b60608101610746828661051a565b610753602083018561051a565b61044f6040830184610718565b6040810161076e828561051a565b61038c6020830184610718565b6020810161049b828461054b565b6020808252810161038c8184610554565b6020808252810161049b81610586565b6020808252810161049b816105cc565b6020808252810161049b816105f4565b6020808252810161049b81610637565b6020808252810161049b81610669565b6020808252810161049b8161069d565b6020808252810161049b816106e4565b60006001600160a01b03821661049b565b600061049b82600061049b8261080a565b60005b8381101561084757818101518382015260200161082f565b838111156102c15750506000910152565b6108618161080a565b81146101ec57600080fd5b801515610861565b8061086156fea2646970667358221220506a722e4e38e41addbe60da76a8199b14ca73047595ab792f4364d3cf1ffbdf64736f6c63430008070033",
  "devdoc": {
    "kind": "dev",
    "methods": {
      "owner()": {
        "details": "Returns the address of the current owner."
      },
      "renounceOwnership()": {
        "details": "Leaves the contract without owner. It will not be possible to call `onlyOwner` functions anymore. Can only be called by the current owner. NOTE: Renouncing ownership will leave the contract without an owner, thereby removing any functionality that is only available to the owner."
      },
      "transferOwnership(address)": {
        "details": "Transfers ownership of the contract to a new account (`newOwner`). Can only be called by the current owner."
      }
    },
    "version": 1
  },
  "userdoc": {
    "kind": "user",
    "methods": {},
    "version": 1
  },
  "storageLayout": {
    "storage": [
      {
        "astId": 7,
        "contract": "contracts/Swap.sol:Swap",
        "label": "_owner",
        "offset": 0,
        "slot": "0",
        "type": "t_address"
      },
      {
        "astId": 123,
        "contract": "contracts/Swap.sol:Swap",
        "label": "_status",
        "offset": 0,
        "slot": "1",
        "type": "t_uint256"
      },
      {
        "astId": 1492,
        "contract": "contracts/Swap.sol:Swap",
        "label": "mdtToken",
        "offset": 0,
        "slot": "2",
        "type": "t_contract(IERC20)816"
      },
      {
        "astId": 1495,
        "contract": "contracts/Swap.sol:Swap",
        "label": "xcnToken",
        "offset": 0,
        "slot": "3",
        "type": "t_contract(IERC20)816"
      }
    ],
    "types": {
      "t_address": {
        "encoding": "inplace",
        "label": "address",
        "numberOfBytes": "20"
      },
      "t_contract(IERC20)816": {
        "encoding": "inplace",
        "label": "contract IERC20",
        "numberOfBytes": "20"
      },
      "t_uint256": {
        "encoding": "inplace",
        "label": "uint256",
        "numberOfBytes": "32"
      }
    }
  }
}